:020000040800F2
:10000000C006002061020008690200086B020008B7
:100010006D0200086F020008710200080000000075
:100020000000000000000000000000007302000853
:10003000750200080000000077020008592500083A
:100040007B0200087B0200087B0200087B0200089C
:100050007B0200087B0200087B0200087B0200088C
:100060007B0200087B0200087B0200087B0200087C
:100070007B0200087B0200087B0200087B0200086C
:100080007B0200087B0200087B0200087B0200085C
:100090007B0200087B0200087B0200087B0200084C
:1000A0007B0200087B0200087B0200087B0200083C
:1000B0007B0200087B0200087B0200087B0200082C
:1000C0007B0200087B0200087B0200087B0200081C
:1000D0007B0200087B0200087B0200087B0200080C
:1000E0007B0200087B0200087B02000800F002F897
:1000F00000F0A6F814A696E8000CB244B344DA4522
:1001000001D100F09DF8BAE80F000FA696E8300084
:10011000A5EB040504EB0607AAEB0704A7F101070A
:100120004FEA15154FEA3414A4F10104AC4201D38F
:1001300000F086F813F0010F18BFFB1A43F001031B
:1001400000F001F8DBE71847783200009832000031
:10015000103A24BF78C878C1FAD8520724BF30C8F3
:1001600030C144BF04680C60704700007047000055
:100170000023002400250026103A28BF78C1FBD8B0
:10018000520728BF30C148BF0B6070476E2900F08E
:100190008B81702900F0D582662903F0578065298C
:1001A00003F05480672903F05180612903F05080E7
:1001B00003681B0A28BF41F08001692900F03881DB
:1001C000642900F03581752900F032816F2900F033
:1001D0006382782900F0A182E92900F0FD81E429F9
:1001E00000F0FA81F52900F0F781EF2900F0608234
:1001F000F82900F0A0820368DB0928BF41F08001E4
:10020000632900F0A187732900F0A687E32900F095
:10021000B187F32900F0B687002070471FB501F0C1
:1002200007F804000020002102F0FAFF401C606083
:100230000020002102F0DEFFE0601FBD10B510BD00
:1002400000F0C8FF1146FFF7E9FF02F0FBF901F0EB
:10025000A5F803B4FFF7F2FF03BC01F0EDF80000CE
:100260000948804709480047FEE7FEE7FEE7FEE74A
:10027000FEE7FEE7FEE7FEE7FEE7FEE70448054986
:10028000054A064B7047000069250008ED0000088C
:10029000C0000020C0060020C0020020C0020020D4
:1002A0000FB41CB5084B06AA7B446946009005981C
:1002B00000F013F904460020694600F021F92046B9
:1002C0001CBC5DF814FB0000550200000FB41CB507
:1002D0000C0007AA009007D04142A14202D320445B
:1002E000401E01E04FF0FF30074B7B446946019010
:1002F000069800F0F2F80021002C01D0009A11704D
:100300001CBC5DF814FB00001D02000040EA010364
:1003100010B59B070FD1042A0DD310C808C9121FAE
:100320009C42F8D020BA19BA884201D9012010BDE8
:100330004FF0FF3010BD1AB1D30703D0521C07E0B5
:10034000002010BD10F8013B11F8014B1B1B07D119
:1003500010F8013B11F8014B1B1B01D1921EF1D18A
:10036000184610BD70477047704770B504468569E0
:100370000068C10601D5302600E02026C00707D05E
:1003800070BDD4E9012130469047206A401C2062AC
:100390006D1EF6D570BD70B5044685690078C0073E
:1003A00007D170BDD4E9012120209047206A401C6C
:1003B00020626D1EF6D570BD09684A0501D540B2B0
:1003C0007047C905FCD500B2704709684A0501D5D8
:1003D000C0B27047C905FCD580B2704770B50C46F5
:1003E0000546012A05D02878800600D5EA69002351
:1003F00002E0012305E05B1C934202D2E05C00288E
:10040000F9D1A869E618C01AA861286A18442862B8
:100410002846FFF7AAFF04E0D5E9012114F8010BF3
:100420009047B442F8D32846FFF7B5FF70BD0000EF
:100430002DE9F0410646002410687529314616A5BD
:1004400010D0FFF7B9FF002802DA404213A507E0F9
:1004500031688A0701D512A502E0490704D511A524
:10046000012401E0FFF7B1FF00210A2206F1240771
:1004700009E0B0FBF2FCB0FBF2F302FB1C003030F1
:1004800078541846491C0028F3D123462A463046A2
:10049000BDE8F04100F069BA000000002D00000046
:1004A0002B0000002000000011680268006A53055C
:1004B00001D508700AE0D30501D5088006E01306CF
:1004C00003D5C217C1E9000200E0086001207047AF
:1004D00001694A1C02610878704700B58FB0CDE908
:1004E00001310021059105497944CDE903101146F8
:1004F000684600F031F90FB000BD0000E5FFFFFFD6
:100500000A6802F8010B0A607047D1E900239A4299
:1005100002D2531C0B601070704700002DE9FF5F82
:1005200015468A460446DFF8AC80F8440027D8E92F
:1005300000103E46CDE9001010E03AF816106A4669
:1005400002A800F023FE411C07D02178890603D5BC
:10055000E269391891420DD80744761C207880064C
:1005600002D5E069B84205DDAE42E6DB3AF8160096
:100570000028E2D1A069C01BA0612046FFF7F5FE6C
:10058000D8E90010CDE90010002017E03AF8181063
:100590006A4602A800F0FAFDB0F1FF3F81460BD099
:1005A00000250DF1080B05E0D4E901211BF8050039
:1005B00090476D1C4D45F7D308F10100B0428046CD
:1005C000E4DB206A384420622046FFF7E4FEBDE801
:1005D000FF9F0000262D00002DE9F0418046D21D2E
:1005E00022F007020025D2E90002F52915A614D051
:1005F000011E72F1000106DA0023D0EB030063EB69
:10060000020211A608E0D8F800108B0701D50FA64A
:1006100002E0490701D50EA601251146002408F184
:10062000240704E000F05CF930323A55641C50EACB
:100630000102F7D12B46324621464046BDE8F04143
:1006400000F093B9000000002D0000002B00000016
:100650002000000030B4002100F1240408E002F082
:100660000705D208303542EA4372DB086554491C5D
:1006700052EA0305F3D10468002310A2250708D528
:1006800004F020040C4304D0C46901230CA2641EAE
:10069000C46130BC00F069B910B504462146106849
:1006A000FFF793FE02462046BDE810400023D1E745
:1006B000D21D22F00701D1E90023CBE700000000A2
:1006C00030000000F0B40D460188090502D5214C28
:1006D0007C4402E01F4C7C440E34002100F12406CF
:1006E00008E002F00F071209E75D42EA03721B09F6
:1006F0007754491C52EA0307F3D10278002312070A
:1007000004D5702D06D009B1022311342246F0BC65
:1007100000F02BB901231034F8E770B504460D46FC
:1007200021461068FFF751FE024629462046BDE8E3
:1007300070400023C6E7D21D22F00703D3E900234F
:10074000C0E70368126843F0200303600823C36115
:100750000023B7E7882B00002DE9F05F89460446A7
:100760004FF0000ADFF874B1FB44C0F820A0204627
:10077000E1688847002874D0252806D0D4E90121F3
:100780009047206A401C2062F1E700265F46204621
:10079000E16888472028054607DB312D05D2781906
:1007A00010F8200C08B10643F1E7B00701D526F098
:1007B0000406C4F81CA00027C4F818A02A2D09D0EC
:1007C000284602F00FFD38B304EB8708303DC8F827
:1007D000185019E059F8041B204604EB8702916178
:1007E000E1688847012F054618D1E069002820DA22
:1007F00026F020061DE0D8F8180000EB800005EB7D
:1008000040003038C8F818002046E168884705469F
:1008100002F0E8FC0028EED1012F0AD02E2D08D1DD
:100820002046E16888477F1C0546022F46F02006D7
:10083000C4DBA069002803DA404246F00106A0614B
:10084000F00701D026F010066C2D0BD0682D09D0D2
:100850004C2D39D06A2D35D0742D35D07A2D33D02A
:1008600016E038E0E1682F4620468847B842054642
:1008700009D16C2F26D04FF48060E16806432046F2
:100880008847054604E06C2F1AD04FF48070064369
:100890000DB3A5F14100192802D8203546F40066B1
:1008A0004A462946204626604E46FFF76FFC80B137
:1008B00001280BD0F61D26F0070000F1080956E7C5
:1008C0004020E4E78020D8E70020D6E706F10409BD
:1008D0004DE7284652E7206ABDE8F09F182B00003C
:1008E00030B5B0F10A0271F100034FEA900E4EEA02
:1008F000817EB0EB0E0061EB91014FEA101E4EEAD3
:10090000017E10EB0E0041EB11114FEA102E4EEA62
:10091000016E10EB0E0041EB11214FEA104E4EEA32
:10092000014E10EB0E0041EB1141401841F1000166
:100930004FEAD00040EA41704FEAD1014FEA81040A
:1009400044EA907410EB800544EB01046D1944EB0C
:100950000404521BA3414FF0000348BF0A3200D5E4
:1009600030BD401C41F1000130BD2DE9F0470D467E
:1009700099469246044600F124080168880604D589
:10098000E06921F01001216000E00120A84201DDB2
:10099000471B00E00027A1697A1902EB0900081A39
:1009A000A0612078C00602D42046FFF7DEFC0026B6
:1009B00008E0D4E901211AF806009047206A401C9B
:1009C000761C20624E45F4DB2078C0060AD520460E
:1009D000FFF7CBFC06E0D4E9012130209047206AE4
:1009E000401C2062381EA7F10107F4DC07E0D4E9BF
:1009F000012118F805009047206A401C2062281E3B
:100A0000A5F10105F3DC2046FFF7C5FC20780006C0
:100A100002D50220BDE8F0870120FBE72DE9FF4F5A
:100A20000C461E464FF0FF378BB0D2E90001DDF8CF
:100A300060800A908A46C1F30A5505B93D460021F7
:100A400008464FF00000BAF1000F00F4400005DA4C
:100A500000EB80004FF4400101EA50004FEA90594A
:100A6000B9F1010F00DDB9460A9850EA4A000ED0EC
:100A700044F61050A5F2FF3545432F14B8F1000F8E
:100A80001ED07542291E1EDDC9F100021CE0B8F11E
:100A9000010F4FF0000001D0302103E0F24305E0E8
:100AA0002154401CB042FBDB30460022002121547F
:100AB0000B99C1F80880C1E900200FB0BDE8F08FA4
:100AC000BD1B6D1CDEE74A4600DA694206A800F04D
:100AD000F3FB06AB93E8070003AB83E8070050463F
:100AE0000A9901F0A3FF8DE80700A0F500501F3818
:100AF00000900398002D0ADD42F21F014A46084487
:100B0000002303A90390684602F00CFA09E0A0F55F
:100B100000504A461F38002303A90390684602F09C
:100B200016FA8DE807000004000C03D04FF0FF30E8
:100B3000410800E01046B8F1000F03D000220092F7
:100B400015461EE0751E05D4FFF7CAFE3032625509
:100B50006D1EF9D5B3460122084302D000227F1C46
:100B600004E02078302801D100227F1E002A099756
:100B700084D01DE0112D07DAFFF7B2FE3032625546
:100B80006D1C50EA0102F5D1084302D00098C8B1AB
:100B90000EE00021681E05E0235C625C6354225471
:100BA000401E491C8142F7DBAB46A81B401E099042
:100BB000002004F80B000B98099AC0F80880C0E9DF
:100BC000002B7AE711264FF0000857E72DE9F04F88
:100BD00088460446D21D22F0070191B0D1E90001F8
:100BE000CDE90A0102F0EAFA02460B98C00F01D0E3
:100BF0002D2007E02068810701D52B2002E020216D
:100C000001EAC000032A099001D0072A05DB034648
:100C10004146204600F010FB0BE12078800601D50C
:100C2000E06900E00620B8F1650F814606D0B8F112
:100C3000660F18D0B8F1670F70D131E00020B9F11C
:100C4000110F009001DB112301E009F101030AAA51
:100C500001A90CA8FFF7E2FEDDE90C70002609F1FE
:100C60000105834647E001204B4600904FF00047C6
:100C70000AAA01A90CA8FFF7D1FEDDE90DB00C9975
:100C80005D46002610B909F101000D18B9EB050009
:100C900003D4C0F1FF3609F10105A5EB09002BE0F3
:100CA000B9F1010F01DA4FF001090020B9F1110F7C
:100CB0000090484601DD112300E003460AAA01A97D
:100CC0000CA8FFF7ABFEDDE90C704D46002683460D
:100CD000207800070AD4AB4500DA5D4601A8012D53
:100CE00004DD411911F8011C302907D04F4502DA03
:100CF00017F1040F04DA012082460FE06D1EEEE7C3
:100D0000002F02DCED1B3E4403E0781CA84200DD0E
:100D10007D1CB81B00F1010A4FF000472078000746
:100D200003D4AA4501DB4FF0FF3A0021B7F1004F91
:100D30000DF143088DF8431024D002202B23002FFF
:100D400001DA7F422D230A21021EA0F1010000DCFE
:100D50005FB197FBF1FC97FBF1F201FB1C7C17469E
:100D60000CF1300C08F801CDEEE7A8F1010003709A
:100D70002188090501D5452100E06521A0F1010880
:100D800000F8011C09980FA9A1EB0807FF1D00B18D
:100D90000120411901EBEA70A1693844081A401E8C
:100DA000A0612078C00602D42046FFF7DEFA099839
:100DB00028B1D4E901219047206A401C20622078A4
:100DC000C00622D52046FFF7D0FA1EE0002E04DB35
:100DD000B34502DD01A8805D00E03020D4E90121A7
:100DE0009047206A401C2062761CAAF101005FEA4D
:100DF000000A0AD100F01CFAC0680168405CD4E91E
:100E000001219047206A401C2062281EA5F101059F
:100E1000DCDC07E0D4E9012118F8010B9047206AD7
:100E2000401C2062381EA7F10107F3DC2046FFF7C3
:100E3000B2FA032011B041E62DE9F04F04460D4609
:100E4000D21D22F0070089B0D0E900974846394604
:100E500002F0B4F90246F80F01D02D2307E0206814
:100E6000810701D52B2302E0202101EAC0038DF880
:100E700020300BB1012000E00020032A824601D07F
:100E8000072A04DB2946204600F0D6F93FE1207806
:100E9000800601D40D2500E0E569C7F30A560D2D43
:100EA00049DA00214FEA175B08464FF00000002F97
:100EB00000F4400007DA00EB80004FF4400100EB43
:100EC000D07001EA60008115012901DD4FF0FF318A
:100ED00000224FEA850CBCF1180F06D31346ACF183
:100EE00018004FF08052C24003E04FF4801323FA01
:100EF0000CF30CF10C0CBCF1200F04D3ACF1200C62
:100F000009FA0CF001E007FA0CF000294FF0004854
:100F100001DD18B90FE00ED140450CD319EB0209E1
:100F20005F4121B9404502D19F4329EA0209BBEB49
:100F3000175F00D0761C2088000502D57B487844D6
:100F400002E07A487844193808AA302302F80A30B7
:100F5000037C0AF10101002E0AF1020A53546A4689
:100F600002DC4FF0300101E04FF031014FF0010899
:100F70008DF8001002D0A6F2FF3603E059EA4701CF
:100F800000D06B4E002D02DC2178090704D54FF00C
:100F900002082E218DF80110C44600210BE0C7F392
:100FA00003433F01C35C491C6D1E02F8083005294C
:100FB00008F1010801DA002DF1DC00210CE000EB62
:100FC0001973491C1B786D1E082902F808304FEA76
:100FD000091908F1010801DA002DF0DC21688B06FF
:100FE00002D516E0A8F10108E04505DD02EB080393
:100FF00013F8013C302BF5D0B8F1000F09DD02EBFE
:10100000080313F8013C2E2B03D1090701D4A8F1E2
:101010000108002D05DD3E2102F808106D1E08F1C3
:101020000108407C002E02F8080008F1010804DAEB
:101030002D20764202F8080002E02B2002F808007A
:101040000A214FF47A70864208F101080BDB96FB07
:10105000F0F3303302F8083096FBF0F308F10108A2
:1010600000FB136601E0642E0CDB642096FBF0F3BA
:10107000303302F8083096FBF0F308F1010800FB6A
:10108000136601E00A2E06DB96FBF1F0303002F821
:10109000080008F1010896FBF1F001FB1060303008
:1010A00002F80800A16908F1010808EB050202EB4B
:1010B0000A00081AA0612078C00602D42046FFF773
:1010C00054F9216A08AE01EB0A00206204E0D4E979
:1010D000012116F8010B9047BAF1010AF7D22078E6
:1010E000C00602D52046FFF740F96E4609E016F823
:1010F000010B3E280FD0D4E901219047206A401C03
:101100002062B8F10108F2D22046FFF744F909B095
:101110000320BDE8F08F206A2844206203E0D4E970
:101120000121302090476D1EEBD3F8E766230000C5
:1011300002FCFFFF10B5436913B1AFF3008001E07B
:10114000FFF74CF9012010BD127800F124010A705C
:1011500000224A700122EDE711684FF0FF32E9E703
:1011600010B5436913B1AFF3008001E0FFF7D6F982
:10117000012010BD128800F1240182840022C28463
:101180000122EDE711684FF0FF32E9E72DE9F04168
:1011900016460C46054600F043F8036893F8010133
:1011A000012807D0FF2C12D8185D80B101202C70C7
:1011B000BDE8F081D3F807013246214603F2071358
:1011C000C7182846BC46BDE8F041002360474FF0F1
:1011D000FF30EDE7754600F0EBF8AE4605006946D6
:1011E000534620F00700854618B020B5FFF746F8B3
:1011F000BDE820404FF000064FF000074FF0000818
:101200004FF0000BAC46ACE8C009ACE8C009ACE854
:10121000C009ACE8C00921F007018D467047000005
:1012200010B500F005F8001D10BD00BFF51F00004F
:1012300000487047580000202DE9F0411F46044641
:1012400003260168072A01F4006004DB08B116A533
:1012500005E016A503E008B115A500E015A521F0ED
:1012600010002060A069C01EA0610FB1401EA061E7
:101270002046FFF77AF84FB1D4E90121384690476C
:10128000206A401C2062C01C206206E0206AFAE747
:10129000D4E9012115F8010B9047761EF8D22046BB
:1012A000FFF779F8BDE8F0814E414E006E616E00A7
:1012B000494E4600696E66002DE9F04781461646A4
:1012C0008AB0354878440DC88DE80D00324878441E
:1012D000801C03AC0DC884E80D0041F69B30084427
:1012E000372190FBF1F290FBF1F5A5F1800501FBB0
:1012F00012041B3C02D56442012000E00020DFF80C
:1013000098A080460027FA44AAF1BE0A0EE0E00742
:101310000AD03246684607EB470101230AEB8101F8
:1013200001F015FE8DE8070064107F1C002CEED143
:10133000194F7F44AE3F19E0E80715D007EB0410C2
:101340000DF1180A90E80E008AE80E00C068F0421D
:1013500001D1981908903246012306A903A801F08B
:10136000F6FD03AB83E807006D10641C002DE3D18C
:101370004FF0010332466946B8F1000F03A802D0CE
:1013800001F0D0FD01E001F0E2FDC9E90001C9F87A
:1013900008200AB0BDE8F0877020000010B50446B0
:1013A000AFF300802046BDE81040FEF752BF0000BA
:1013B00000487047380000204FF0013C50F8042BE3
:1013C00051F8043B9A4221D1A2EB0C03934313EA58
:1013D000CC1317D150F8042B51F8043B9A4215D185
:1013E000A2EB0C03934313EACC130BD150F8042B5C
:1013F00051F8043B9A4209D1A2EB0C03934313EA40
:10140000CC13DBD04FF00000704700BFD01A01BAF8
:10141000B1FA81F101F0180122FA01F0CB40DBB200
:10142000C0B2C01AC1F120012CFA01F3D11A9143C4
:1014300011EAC311E6D1704701491820ABBEFEE79F
:10144000260002007047000080B500F09FF90021DF
:10145000084600F0C7FA43F29430C0F6000000F0EE
:10146000C7F980BD80B58AB00990099B43F28032EC
:10147000C0F6000201A800902021FEF727FF00F02F
:1014800085F90021084600F0ADFA009800F0B0F9A7
:101490004FF47A7001F0BEF80AB080BD80B58AB012
:1014A0000990099B43F28932C0F6000201A800901E
:1014B0002021FEF70BFF00F069F90021084600F03B
:1014C00091FA009800F094F94FF47A7001F0A2F8C4
:1014D0000AB080BD80B586B000F058F900210091B7
:1014E000084600F07FFA43F27230C0F6000000F0C8
:1014F0007FF90098012100F075FA40F2B800C2F2BD
:101500000000026843F2AD31C0F6000102A801906C
:10151000FEF7C6FE019800F06BF906B080BD000032
:1015200080B582B000F032F900210191084600F048
:1015300059FA43F2A230C0F6000000F059F90198C0
:10154000012100F04FFA43F2B330C0F6000000F082
:101550004FF940F6B83001F05DF802B080BD0000F0
:1015600088B00790069100200590049003900290A7
:10157000019000900698C07800F00F000590069842
:10158000C078C006002806D5FFE706988178059840
:1015900008430590FFE70698007800284BD0FFE746
:1015A00007980068019000200390FFE70398072840
:1015B0003DD8FFE7039901208840029006980088F3
:1015C0000299084004900498029988422AD1FFE7C2
:1015D00003988000029002990F20884000900099A3
:1015E0000198884301900598029900FA01F1019849
:1015F000084301900698C078282806D1FFE7039990
:1016000001208840079948610BE00698C078482877
:1016100006D1FFE703990120884007990861FFE799
:10162000FFE7FFE7FFE7039801300390BEE701986B
:1016300007990860FFE706980088B0F5807F50DBC7
:10164000FFE707984068019000200390FFE70398A8
:10165000072842D8FFE7039800F1080101208840DD
:101660000290069800880299084004900498029914
:1016700088422DD1FFE703988000029002990F2045
:10168000884000900099019888430190059802993C
:1016900000FA01F10198084301900698C0782828C3
:1016A00008D1FFE7039800F108010120884007995D
:1016B0004861FFE70698C078482808D1FFE70398FB
:1016C00000F108010120884007990861FFE7FFE762
:1016D000FFE7039801300390B9E701980799486044
:1016E000FFE708B07047000082B00190ADF802102B
:1016F000BDF802000199486102B0704782B00190C4
:10170000ADF80210BDF802000199086102B07047FF
:1017100082B00190ADF802108DF801209DF8010013
:1017200028B1FFE7BDF802000199086104E0BDF8A7
:10173000020001994861FFE702B0704780B584B0AC
:101740008DF80F008DF80E100F2000F063FF0220BF
:10175000029000F05FF80120019000F05BFF28206C
:1017600000F058F8019800F055FF0C2000F052F8F6
:10177000019800F04FFF019800F04CF8029800F03B
:1017800049FF062000F046F804B080BD80B5012076
:1017900000F040F8022000F03DFF80BD80B500F071
:1017A00005F810200221FFF7C9FF80BD80B584B085
:1017B0000420012100F0D0FC0720ADF80C0010201F
:1017C0008DF80F0003208DF80E0040F60000C4F2E3
:1017D0000100019003A90291FFF7C2FE019802994E
:1017E0004FF47062ADF80C20FFF7BAFE04B080BD74
:1017F00080B582B00190FFE70198007838B1FFE72B
:101800000198411C0191007800F078F8F4E702B0EB
:1018100080BD000080B588B08DF81F0040F6000044
:10182000C4F20100049001210691FFF75DFF0498C6
:101830000221FFF759FF04989DF81F10C1F3001211
:101840004FF480710091FFF763FF04989DF81F101B
:10185000C1F340124FF400710191FFF759FF049852
:101860009DF81F10C1F380124FF480610291FFF7C1
:101870004FFF04989DF81F10CA094FF400610391AF
:10188000FFF746FF049804210591FFF737FF0698FC
:1018900000F0C0FE04980599FFF726FF0099049810
:1018A0009DF81F2002F00102FFF732FF0199049812
:1018B0009DF81F20C2F34002FFF72AFF0299049807
:1018C0009DF81F20C2F38002FFF722FF03990498BE
:1018D0009DF81F20C2F3C002FFF71AFF0498059974
:1018E000FFF70CFF069800F095FE04980599FFF7A6
:1018F000FBFE069800F08EFE08B080BD80B588B073
:101900008DF81F0040F60000C4F201000490012190
:101910000691FFF7F3FE04980221FFF7E5FE049815
:101920009DF81F10C1F300124FF480710091FFF772
:10193000EFFE04989DF81F10C1F340124FF40071A0
:101940000191FFF7E5FE04989DF81F10C1F3801286
:101950004FF480610291FFF7DBFE04989DF81F10A1
:10196000CA094FF400610391FFF7D2FE04980421E5
:101970000591FFF7C3FE069800F04CFE0498059908
:10198000FFF7B2FE009904989DF81F2002F00102B3
:10199000FFF7BEFE019904989DF81F20C2F3400294
:1019A000FFF7B6FE029904989DF81F20C2F380024B
:1019B000FFF7AEFE039904989DF81F20C2F3C00202
:1019C000FFF7A6FE04980599FFF798FE069800F029
:1019D00021FE04980599FFF787FE069800F01AFE8D
:1019E00008B080BD80B582B08DF807008DF8061074
:1019F0009DF806209DF8071001F14000002A08BF5D
:101A000008468DF805009DF8050040F08000FFF7BE
:101A100001FF02B080BD000080B584B00390ADF836
:101A20000A100398BDF80A10FFF768FE4FF4FA7029
:101A3000019000F0EFFD0398BDF80A10FFF754FE87
:101A4000019800F0E7FD04B080BD000080B584B0CF
:101A500010200090012100F07FFB00984FF400510E
:101A6000ADF80C108DF80F0003208DF80E0041F238
:101A70000000C4F20100019003A90291FFF770FD7C
:101A8000019802994FF48042ADF80C20FFF768FDF1
:101A900004B080BD80B582B014200DF10701012291
:101AA00000F060F99DF80700800750B9FFE71420A7
:101AB0000090002100F0D6F90098012100F0D2F941
:101AC000FFE702B080BD000080B584B00390002025
:101AD0008DF809008DF805000D200DF1050101229A
:101AE00000F01CFB03999320087003992020487094
:101AF000039B69460DF1060008600C20022219467E
:101B000000F0D4F98DF80B009DF80B0038BBFFE70F
:101B100000208DF80A00FFE79DF80A00032810DC7A
:101B2000FFE703989DF80A10415C9DF809004840C2
:101B30008DF80900FFE79DF80A0001308DF80A00D2
:101B4000EAE79DF8090003999DF80A20895C88421C
:101B500004D0FFE702208DF80B00FFE7FFE79DF8B8
:101B60000B0004B080BD000080B588B007908DF8F0
:101B70001B1005920520022100F050F90A200721D0
:101B800000F070F900208DF81300FFE79DF81300B6
:101B90009DF81B10884213DAFFE707989DF8131091
:101BA000405C8DF8110009200DF11101012200F0B7
:101BB000B5FAFFE79DF8130001308DF81300E5E753
:101BC00003208DF8100004A90122104600F0A6FAA7
:101BD000FF208DF81300FFE705200DF1120101220F
:101BE00000F0C0F89DF8130001388DF81300FFE7EE
:101BF0009DF813100020029049B1FFE79DF81200F4
:101C000000F00401012080EA91000290FFE70298B1
:101C1000C0070028E0D1FFE722200DF10F010122CB
:101C2000019200F09FF8019A21200DF10E0100F0C1
:101C300099F89DF80F00059908709DF80E00059918
:101C4000487008B080BD000080B582B00190019955
:101C5000262000F0A5F88DF803009DF8030030B9A8
:101C6000FFE70198FFF730FF8DF80300FFE700F072
:101C700005F89DF8030002B080BD000080B584B077
:101C800050208DF80A0000208DF80B000DF10A009D
:101C90000190821C0221FFF767FF019B69460DF14D
:101CA0000E0008600C200422194600F0FFF804B072
:101CB00080BD000080B584B08D208DF80F003E20DF
:101CC0008DF80E0030208DF80D0000208DF80C00EE
:101CD00070208DF80B0040208DF80A003D208DF813
:101CE0000900FF208DF808008DF8070000F088F843
:101CF0002A200DF10F010122009200F00FFA009A44
:101D00002B200DF10E0100F009FA009A2D200DF1A3
:101D10000D0100F003FA009A2C2003A900F0FEF94F
:101D2000009A26200DF10B0100F0F8F9009A152019
:101D30000DF10A0100F0F2F9009A11200DF10901EC
:101D400000F0ECF9009A022002A900F0E7F9009AED
:101D500003200DF1070100F0E1F9FFF79BFE04B04D
:101D600080BD000080B584B08DF80F0002918DF821
:101D7000072000F041FA9DF80F10802040EA410052
:101D80008DF80F009DF80F0000F0ECFA02989DF816
:101D9000071000F03BFA00F025FA04B080BD000007
:101DA00080B586B08DF81700049107208DF80B00E0
:101DB0000D200DF10B010122019200F0AFF9019A03
:101DC0009DF8170004990870049B694603A80860F1
:101DD0000C20194600F06AF88DF80F009DF80F00EE
:101DE00028B9FFE7BDF80C00102804D0FFE7022057
:101DF0008DF80F00FFE79DF80F0006B080BD0000D2
:101E000080B582B00F208DF807000DF10701012287
:101E1000104600F083F902B080BD000080B584B0A8
:101E20008DF80F008DF80E1000208DF80D009DF834
:101E30000F000DF10D01019101220292FFF792FFB7
:101E40000199029A9DF80E0002FA00F39DF80D0028
:101E500098438DF80D009DF80F0000F05FF904B075
:101E600080BD000080B584B08DF80F008DF80E1095
:101E700000208DF80D009DF80F000DF10D0101916E
:101E800001220292FFF76EFF0199029A9DF80E005F
:101E900002FA00F39DF80D0018438DF80D009DF82F
:101EA0000F0000F03BF904B080BD000080B58EB09B
:101EB000DDF840C08DF837000C918DF82F200A9383
:101EC00002208DF8270000208DF826008DF82500CF
:101ED0009DF83700014606910C280BD0FFE70698C5
:101EE0000E280ED1FFE712208DF8260010208DF865
:101EF000250007E077208DF8260030208DF825009A
:101F000000E0FFE79DF8260040F080008DF82100FA
:101F100002200DF121010122049200F0FFF80420BB
:101F200007210391FFF77AFF03990A20FFF79AFF31
:101F3000049A002005908DF8200008A9104600F0B2
:101F4000EDF80598ADF82200FFE7BDF822009DF8F6
:101F50002F10884213DAFFE70C98BDF82210405C7E
:101F60008DF81F0009200DF11F01012200F0D6F8A5
:101F7000FFE7BDF822000130ADF82200E5E79DF84B
:101F800037008DF8200008A90122104600F0C6F89D
:101F90009DF837000C2805D1FFE70D200721FFF73A
:101FA00061FFFFE74FF4FA60ADF8220000208DF8E2
:101FB0001E00FFE704200DF11E010122FFF7D2FEF3
:101FC000BDF822000138ADF82200FFE7BDF822106D
:101FD0000020029089B1FFE79DF81E100020C9077C
:101FE000029051B9FFE79DF81E009DF825100840AA
:101FF000B0FA80F040090290FFE70298C00700287D
:10200000D8D1FFE70D200721FFF708FFBDF8220018
:1020100000287ED0FFE700208DF81D0006200DF17E
:102020001D010122FFF79EFE9DF81D0010F01B0F01
:102030006AD1FFE700208DF827009DF81E009DF86B
:1020400026100840C00720B1FFE701208DF82700C7
:10205000FFE79DF837000C2855D1FFE70A200DF166
:102060001E0101220192FFF77DFE019A00208DF8EA
:102070001C000C2007A9FFF775FE9DF81C0000F05E
:1020800007008DF824009DF8240050B1FFE79DF86B
:102090001E109DF8240000EBC1000838109908803C
:1020A00005E09DF81E00C00010990880FFE79DF82C
:1020B0001E0020B9FFE701208DF81E00FFE79DF804
:1020C0001E00112804DBFFE710208DF81E00FFE73B
:1020D0000020ADF82200FFE7BDF822009DF81E1099
:1020E00088420FDAFFE70A98BDF822100144092060
:1020F0000122FFF737FEFFE7BDF822000130ADF8FF
:102100002200E9E7FFE703E002208DF82700FFE760
:10211000FFE79DF827000EB080BD000080B584B0B9
:102120008DF80F0002918DF8072000F065F89DF8FA
:102130000F107E2000EA41008DF80F009DF80F007F
:1021400000F010F902989DF8071000F0C5F800F0B3
:1021500049F804B080BD000082B001908DF80310F2
:102160009DF8030048B1FFE7019A41F21801C4F25B
:10217000020108681043086008E0019A41F2180162
:10218000C4F20201086890430860FFE702B070479C
:1021900043F20001C4F20101088840F040000880C9
:1021A0007047000041F21801C4F20201086840F0D3
:1021B0000400086040F60001C4F20101002008603C
:1021C000086840F430000860086840F0304008605B
:1021D000086840F080600860086840F4403008609B
:1021E0007047000040F61001C4F20101086840F099
:1021F000100008607047000040F61001C4F20101B1
:10220000086840F4801008607047000082B00190B8
:102210000091FFE7009840B3FFE7FFE743F20800B3
:10222000C4F2010000880006002801D5FFE7F5E7A9
:1022300043F20C01C4F2010100200880FFE743F2E1
:102240000800C4F201000088C00708B9FFE7F6E7FC
:1022500043F20C00C4F20100008801994A1C01926B
:102260000870009801380090D4E702B07047000071
:1022700041F21801C4F20201086840F4805008607D
:1022800043F20001C4F20101088820F00100088037
:10229000088820F002000880088840F004000880C8
:1022A000088840F020000880088820F0800008801E
:1022B000088840F440700880088820F48060088016
:1022C000088820F40060088043F20401C4F2010190
:1022D000002008807047000084B003900291002025
:1022E0000190FFE701980299884217DAFFE7FFE7BC
:1022F00043F20800C4F2010000888007002801D4DE
:10230000FFE7F5E703980199405C43F20C01C4F242
:1023100001010880019801300190E3E7FFE743F2F3
:102320000800C4F2010000888007002801D4FFE7FC
:10233000F5E7FFE743F20800C4F201000088000659
:10234000002801D5FFE7F5E743F20C00C4F20100D5
:102350000088009043F20800C4F201000088009059
:1023600004B0704782B08DF80700FFE743F2080021
:10237000C4F2010000888007002801D4FFE7F5E7D8
:102380009DF8070043F20C01C4F201010880FFE749
:1023900043F20800C4F2010000888007002801D43D
:1023A000FFE7F5E7FFE743F20800C4F20100008809
:1023B0000006002801D5FFE7F5E743F20C00C4F260
:1023C00001000088009043F20800C4F20100008878
:1023D000009002B07047000080B500F001F880BDA9
:1023E00084B000200390029041F20001C4F2020187
:1023F000086840F480300860FFE741F20000C4F252
:102400000200006800F4003002900398013003904D
:10241000FFE702990020019039B9FFE70398B0F572
:10242000A06018BF01200190FFE70198C0070028B5
:10243000E3D1FFE741F20000C4F20200006880032C
:10244000002803D5FFE70120029002E0002002905F
:10245000FFE70298012851D1FFE742F20001C4F2E0
:102460000201086840F010000860086820F00700CA
:102470000860086840F00200086041F20401C4F2FC
:10248000020100910868086008680860086840F464
:1024900080600860086820F47C100860086840F4D8
:1024A000E810086041F20001C4F20201086840F03F
:1024B00080700860FFE741F20000C4F2020000688B
:1024C0008001002801D4FFE7F5E741F20401C4F2DE
:1024D0000201086820F003000860086840F002006C
:1024E0000860FFE741F20400C4F20200006800F057
:1024F0000C00082801D0FFE7F4E700E0FFE704B094
:102500007047000080B582B0009000980138B0F1AB
:10251000807F03D3FFE70120019019E00098013884
:102520004EF21401CEF2000108604FF0FF300F218F
:1025300000F04EF84EF21801CEF2000100200860C3
:102540004EF21002CEF20002072111600190FFE767
:10255000019802B080BD000040F2B401C2F2000157
:10256000086801300860704780B541F20002C4F28B
:102570000202106840F00100106041F20401C4F250
:10258000020108680023CFF6FF03184008601068B6
:102590004FF6FF73CFF6F66318401060106820F412
:1025A00080201060086820F4FE00086041F20801F5
:1025B000C4F202014FF41F000860FFF70DFF4EF652
:1025C0000851CEF200014FF00060086080BD0000AD
:1025D00082B08DF8070000919DF9070000280AD409
:1025E000FFE7009800019DF907104EF20042CEF27D
:1025F000000288540BE0009800019DF8071001F0DC
:102600000F014EF61452CEF200028854FFE702B0DA
:102610007047000082B0019040F2B400C2F20000A6
:1026200000680090FFE740F2B400C2F200000068CA
:102630000099401A0199884201D2FFE7F3E702B0FE
:102640007047000080B582B00020019040F2000089
:10265000C2F20000006844F6D351C1F26201A0FB4F
:1026600001108009FFF74EFFFFF79CFDFFF700FE0A
:10267000FFF7B8FDFFF78CFDFFF7E8F9FFF78EF8DD
:10268000FFF718FBFFF706FAFEF74AFFFEF7DCFE3E
:10269000FFE740F29800C2F20000FFF7D5FA0028E9
:1026A00040F0C381FFE740F29800C2F2000040F220
:1026B0000401C2F200010522FDF728FE00284AD1DC
:1026C000FFE740F2A000C2F20000006808BBFFE78D
:1026D00041F20000C4F201004FF40051FFF79CF9F1
:1026E00043F25030C0F60000FEF7BCFE40F220007E
:1026F000C2F20000026840F2B801C2F200010868AC
:102700001044086040F2A001C2F2000101200860FC
:1027100020E041F20000C4F201004FF48041FFF7D5
:102720007BF943F25030C0F60000FEF7B7FE40F2EE
:102730002000C2F20000026840F2B801C2F20001BB
:102740000868801A086040F2A001C2F2000100206F
:102750000860FFE763E140F29800C2F2000040F237
:102760000901C2F200010522FDF7D0FD00284AD17F
:10277000FFE740F2A400C2F20000006808BBFFE7D8
:1027800041F20000C4F201004FF40051FFF744F998
:1027900043F25A30C0F60000FEF764FE40F2240017
:1027A000C2F20000026840F2B801C2F200010868FB
:1027B0001044086040F2A401C2F200010120086048
:1027C00020E041F20000C4F201004FF48041FFF725
:1027D00023F943F25A30C0F60000FEF75FFE40F2E4
:1027E0002400C2F20000026840F2B801C2F2000107
:1027F0000868801A086040F2A401C2F200010020BB
:102800000860FFE70AE140F29800C2F2000040F2DF
:102810000E01C2F200010522FDF778FD00284AD121
:10282000FFE740F2A800C2F20000006808BBFFE723
:1028300041F20000C4F201004FF40051FFF7ECF840
:1028400043F25F30C0F60000FEF70CFE40F22800B5
:10285000C2F20000026840F2B801C2F2000108684A
:102860001044086040F2A801C2F200010120086093
:1028700020E041F20000C4F201004FF48041FFF774
:10288000CBF843F25F30C0F60000FEF707FE40F2DF
:102890002800C2F20000026840F2B801C2F2000152
:1028A0000868801A086040F2A801C2F20001002006
:1028B0000860FFE7B1E040F29800C2F2000040F289
:1028C0001301C2F200010522FDF720FD00284AD1C4
:1028D000FFE740F2AC00C2F20000006808BBFFE76F
:1028E00041F20000C4F201004FF40051FFF794F8E8
:1028F00043F26730C0F60000FEF7B4FD40F22C0052
:10290000C2F20000026840F2B801C2F20001086899
:102910001044086040F2AC01C2F2000101200860DE
:1029200020E041F20000C4F201004FF48041FFF7C3
:1029300073F843F26730C0F60000FEF7AFFD40F2D7
:102940002C00C2F20000026840F2B801C2F200019D
:102950000868801A086040F2AC01C2F20001002051
:102960000860FFE758E040F29800C2F2000040F231
:102970001801C2F200010522FDF7C8FC00284AD167
:10298000FFE740F2B000C2F20000006808BBFFE7BA
:1029900041F20000C4F201004FF40051FFF73CF88F
:1029A00043F26D30C0F60000FEF75CFD40F23000EF
:1029B000C2F20000026840F2B801C2F200010868E9
:1029C0001044086040F2B001C2F20001012008602A
:1029D00020E041F20000C4F201004FF48041FFF713
:1029E0001BF843F26D30C0F60000FEF757FD40F2D1
:1029F0003000C2F20000026840F2B801C2F20001E9
:102A00000868801A086040F2B001C2F2000100209C
:102A10000860FFE7FFE7FFE7FFE7FFE7FFE7FEF7F5
:102A200059FD6420FFF7F6FDFFE732E65FEA400C50
:102A300008BF91F0000F4FEA8C234FEAC12243EA0E
:102A400051514FEA1C5018BF00F5F0404FEA3000DA
:102A500018BF41F000415FEA6C5C00F02980BCF1D6
:102A6000FF3F08BF40F080407047130C06BF1204C0
:102A70004FF0100C4FF0000C130E04BF12020CF1BB
:102A8000080C130F04BF12010CF1040C930F04BFC8
:102A900092000CF1020CD30F04BF52000CF1010C98
:102AA00011464FF00002A0F11F00A0EB0C00704790
:102AB00011F0004F08BF704731F000413FF4D5AF2F
:102AC0000B0C06BF09044FF0100C4FF0000C0B0E5E
:102AD00004BF09020CF1080C0B0F04BF09010CF133
:102AE000040C8B0F04BF89000CF1020CCB0F04BF48
:102AF00049000CF1010CCCF1200322FA03F341EA66
:102B0000030102FA0CF2A0EB0C0000F10100704787
:102B100023F07F4720F07F4C80EA030000F0004064
:102B2000ACEB070303F57C5303F1FF032DE9804968
:102B300009B44FEA144324EA03484FEA154B25EA47
:102B40000B4E0FF2042606EB13273E7803FB0667B5
:102B5000C7F5000707FB06F64FEAD64606F1020660
:102B60004FEA543707FB066CCCF1005C4FEA1C4778
:102B70002CEA074C0CFB06F507FB06F404EB1546A4
:102B80004FEA961649085FEA320234BF00204FF040
:102B900000404FEAD13706FB07FC4FEA1C4C0CFB08
:102BA0000BF7D21B03FB0CF761EB07010CFB0EF7D5
:102BB000B0EB074072EB17420CFB08F734BFA2EBF7
:102BC0000742B2EB074261EB17414FEA0C444FEA70
:102BD000910706FB07FC4FEA1C4C0CFB0BF7B0EB14
:102BE000C74072EB573203FB0CF734BFA2EBC7426E
:102BF000B2EBC74261EB57310CFB0EF7B0EBC700ED
:102C000072EB57720CFB08F734BFA2EBC702B2EBB2
:102C1000C70261EB57714FEA816141EA92114FEAB5
:102C2000826242EA90124FEA806004EBCC04039F78
:102C30004FEAD13706FB07FC4FEA1C4C0CFB0BF7A5
:102C4000D21B03FB0CF761EB07010CFB0EF7B0EB9B
:102C5000074072EB17420CFB08F734BFA2EB0742A8
:102C6000B2EB074261EB17414FEA8C5504EB9C2411
:102C70004FEA910706FB07FC4FEA1C4C0CFB0BF7D5
:102C8000B0EBC74072EB573203FB0CF734BFA2EB3B
:102C9000C742B2EBC74261EB57310CFB0EF7B0EB0A
:102CA000C70072EB57720CFB08F734BFA2EBC702E8
:102CB000B2EBC70261EB57714FEA816141EA9211B1
:102CC0004FEA826242EA90124FEA806015EB4C258F
:102CD00044F100044FEAD13706FB07FC4FEA1C4CD5
:102CE0000CFB0BF7D21B03FB0CF761EB07010CFB92
:102CF0000EF7B0EB074072EB17420CFB08F734BF3E
:102D0000A2EB0742B2EB074261EB17414FEA813178
:102D100041EA92414FEA823242EA90424FEA8030E1
:102D20004FEA0C7615EB1C1544F1000448EA034306
:102D30004EEA0B484FF0000EB2EB080C71EB0307A4
:102D400024BF624639464EEB0E0E4FF0000B0018C2
:102D5000524149414BEB0B0BB2EB080C71EB0307F3
:102D60007BF1000B24BF624639464EEB0E0E4FF04E
:102D7000000B0018524149414BEB0B0BB2EB080C16
:102D800071EB03077BF1000B24BF624639464EEB23
:102D90000E0E51EA020718BF46F0010616EB0E763A
:102DA00055F1000254F1000103D5BDE88901BDE8E9
:102DB0000088BDE88901BDE80048B619524141EBE1
:102DC0000101A3F10103704780807F7E7D7C7B7AC7
:102DD0007978777676757473727171706F6E6E6DC7
:102DE0006C6C6B6A6A69686867666665646463636D
:102DF00062616160605F5F5E5E5D5D5C5C5B5B5AF3
:102E00005A5959585857575656555555545453535F
:102E100052525251515050504F4F4F4E4E4D4D4DBA
:102E20004C4C4C4B4B4B4A4A4A4949494848484705
:102E30004747474646464545454444444443434343
:102E400043424242424141419C46002B30D47700EC
:102E50002BD04FEA37071CB503B44FF010004FF0EA
:102E60001001BAF1000F06D0BCF1000FDCBF40F03A
:102E7000080040F008014FF000000FBCBDE8104012
:102E80000BF1010BBBF1010F08BF5FEA170722BF6F
:102E900012F1010211F101014FF0004143F1000371
:102EA00000F0004043EA00007047F9D35708D0E72C
:102EB00046EA06464FEA164613F1400F1FDD13F1AE
:102EC000200FDFBF16430A46002120335B42BED0ED
:102ED000C3F1200746EA06464FEA164602FA07F70C
:102EE00046EA070622FA03F2C3F1200701FA07F7C0
:102EF00042EA070221FA03F14FF00003A7E746EA8E
:102F0000020646EA06464FEA164646EA0106BCBFF6
:102F100046EA0646360C4FF000034FF000024FF031
:102F2000000194E72DE9804C70B49A46934691E8ED
:102F3000380007C831EA400C48BF34EA430C03D5D7
:102F4000FFF7E6FDFFF780FFF0BCBDE8008C2DE940
:102F5000804C70B49A46934691E8380007C810F048
:102F6000804F08BF13F0804F03D100F005F8FFF742
:102F70006BFFF0BCBDE8008C20F07F4723F07F4C56
:102F800080EA030000F0004007EB0C03A3F57C533C
:102F9000A3F1FE0392F0000F00F0B38095F0000F54
:102FA00000F077802DE901494FEA114021EA0048FD
:102FB0004FEA144624EA064700FB06FC08FB06F627
:102FC00007FB08F818EB06484CEB164C00FB07F71C
:102FD00018EB07484CEB17404FEA124B22EA0B4E16
:102FE0004FEA154625EA06470BFB06FC0EFB06F6E4
:102FF00007FB0EFE1EEB064E4CEB164C0BFB07F7C9
:103000001EEB074E4CEB174B18EB0B0840F1000082
:1030100018EB0E0B58EB000840F100008F1A4FF030
:1030200000014FF000063CBFC943661B14BFB5EB5F
:10303000040C00213CBFC943F61B4FEA174427EAA2
:1030400004454FEA1C472CEA074C04FB076205FBCA
:1030500007F70CFB05F616EB074642EB174204FB9D
:103060000CFC16EB0C4642EB1C421BEB060658EB25
:10307000020241414EEA8E0E46EA9E0601D5BDE8A7
:103080000189B619524141EB0101A3F10103BDE8E9
:1030900001894FEA144524EA05464FEA114721EA1F
:1030A000074C05FB07F406FB07F70CFB06F111EBD9
:1030B000074144EB174405FB0CFC11EB0C4144EBBE
:1030C0001C444FEA124722EA074C05FB07F206FBB5
:1030D00007F70CFB06F616EB074642EB174205FB1B
:1030E0000CFC16EB0C4642EB1C456A1854F100012F
:1030F00048BF7047B619524141EB0101A3F10103EA
:10310000704795F0000F37D04FEA114221EA02468E
:103110004FEA144724EA074C02FB07F106FB07F7C6
:103120000CFB06F414EB074441EB174102FB0CFCCB
:1031300014EB0C4441EB1C414FEA154725EA074CC0
:1031400002FB07F506FB07F70CFB06F616EB074636
:1031500045EB174502FB0CFC16EB0C4645EB1C42FD
:10316000121951F1000148BF7047B619524141EBA5
:103170000101A3F1010370474FEA144524EA054613
:103180004FEA114721EA074C05FB07F106FB07F759
:103190000CFB06F212EB074241EB174105FB0CFC5E
:1031A00012EB0C4251EB1C414FF0000648BF704738
:1031B000921841EB0101A3F101037047490050EA65
:1031C000C12018BF04204A0D18BF40F0010040F292
:1031D000FF72B2EB515F08BF40F00200012808BF48
:1031E0000520704730380A2801D20120704700209E
:1031F0007047000010B500290AD00878002807D0D1
:1032000005487844FEF7D8F8002801D0002010BD0A
:103210000248784410BD0000DE010000D601000025
:1032200010B500290AD00878002807D0054878444E
:10323000FEF7C2F8002801D0002010BD02487844F3
:1032400010BD0000CE010000C6010000FDF7BEBCAD
:10325000FDF7F2BD00000000000000003031323305
:1032600034353637383941424344454640305800BA
:1032700030313233343536373839616263646566EC
:103280004030780004000008000000000000000248
:1032900000010000103031323334353637383961AF
:1032A00062636465667870003031323334353637A6
:1032B000383941424344454658500000024000001E
:1032C000000000A00000000005400000000000C851
:1032D000000000000C4000000000409C00000000C6
:1032E000194000000020BCBE000000003440000077
:1032F000BFC91B8E00000004B5400000504BCFD06A
:103300006607E2CF010000006C4100003E8251AA36
:10331000DFEEA73401000000D9420000DCB5A0E2D6
:103320003A301F97FFFFFFFFB4450000FD25A0C8FE
:10333000E9A3C14FFFFFFFFFFF3F00000000008037
:1033400000000000FF3F00000000008000000000BF
:1033500043686F636F6C617465004D696C6B00420C
:10336000697363756974004A75696365004C6179B6
:103370007300546F74616C20416D6F756E743A0008
:1033800025732041646465640025732052656D6F68
:103390007665640041646420796F75722069746594
:1033A0006D0057656C636F6D6520746F0025642038
:1033B0005273005375706572204D61726B657400B5
:1033C0000C35000800000020340000005001000807
:1033D0004035000838000020880600007001000811
:1033E0001C00000043000000F8FFFFFF0C0000007D
:1033F0000E0000000F0000002E0000001001000071
:1034000043000000F8FFFFFF0040404040404040C4
:1034100040404141414141404040404040404040A7
:10342000404040404040404040050202020202024B
:10343000020202020202020202202020202020209A
:1034400020202002020202020202909090909090AE
:10345000101010101010101010101010101010106C
:1034600010101010020202020202888888888888E0
:1034700008080808080808080808080808080808CC
:1034800008080808020202024000000000000000D4
:10349000000000000000000000000000000000002C
:1034A000000000000000000000000000000000001C
:1034B000000000000000000000000000000000000C
:1034C00000000000000000000000000000000000FC
:1034D00000000000000000000000000000000000EC
:1034E00000000000000000000000000000000000DC
:1034F00000000000000000000000000000000000CC
:1035000000000000000000000000000000A24A04CB
:1035100024FFCCDCCB3384E1267073B21625F25342
:10352000EC4425DE53841A25E80000000F0000005B
:1035300032000000230000001E0000001400000004
:04000005080002618C
:00000001FF
